{
  "contractName": "MyNFT",
  "abi": [
    {
      "inputs": [],
      "stateMutability": "nonpayable",
      "type": "constructor"
    },
    {
      "anonymous": false,
      "inputs": [
        {
          "indexed": true,
          "internalType": "address",
          "name": "owner",
          "type": "address"
        },
        {
          "indexed": true,
          "internalType": "address",
          "name": "approved",
          "type": "address"
        },
        {
          "indexed": true,
          "internalType": "uint256",
          "name": "tokenId",
          "type": "uint256"
        }
      ],
      "name": "Approval",
      "type": "event"
    },
    {
      "anonymous": false,
      "inputs": [
        {
          "indexed": true,
          "internalType": "address",
          "name": "owner",
          "type": "address"
        },
        {
          "indexed": true,
          "internalType": "address",
          "name": "operator",
          "type": "address"
        },
        {
          "indexed": false,
          "internalType": "bool",
          "name": "approved",
          "type": "bool"
        }
      ],
      "name": "ApprovalForAll",
      "type": "event"
    },
    {
      "anonymous": false,
      "inputs": [
        {
          "indexed": true,
          "internalType": "address",
          "name": "previousOwner",
          "type": "address"
        },
        {
          "indexed": true,
          "internalType": "address",
          "name": "newOwner",
          "type": "address"
        }
      ],
      "name": "OwnershipTransferred",
      "type": "event"
    },
    {
      "anonymous": false,
      "inputs": [
        {
          "indexed": true,
          "internalType": "address",
          "name": "from",
          "type": "address"
        },
        {
          "indexed": true,
          "internalType": "address",
          "name": "to",
          "type": "address"
        },
        {
          "indexed": true,
          "internalType": "uint256",
          "name": "tokenId",
          "type": "uint256"
        }
      ],
      "name": "Transfer",
      "type": "event"
    },
    {
      "inputs": [
        {
          "internalType": "address",
          "name": "to",
          "type": "address"
        },
        {
          "internalType": "uint256",
          "name": "tokenId",
          "type": "uint256"
        }
      ],
      "name": "approve",
      "outputs": [],
      "stateMutability": "nonpayable",
      "type": "function"
    },
    {
      "inputs": [
        {
          "internalType": "address",
          "name": "owner",
          "type": "address"
        }
      ],
      "name": "balanceOf",
      "outputs": [
        {
          "internalType": "uint256",
          "name": "",
          "type": "uint256"
        }
      ],
      "stateMutability": "view",
      "type": "function"
    },
    {
      "inputs": [
        {
          "internalType": "uint256",
          "name": "tokenId",
          "type": "uint256"
        }
      ],
      "name": "getApproved",
      "outputs": [
        {
          "internalType": "address",
          "name": "",
          "type": "address"
        }
      ],
      "stateMutability": "view",
      "type": "function"
    },
    {
      "inputs": [
        {
          "internalType": "address",
          "name": "owner",
          "type": "address"
        },
        {
          "internalType": "address",
          "name": "operator",
          "type": "address"
        }
      ],
      "name": "isApprovedForAll",
      "outputs": [
        {
          "internalType": "bool",
          "name": "",
          "type": "bool"
        }
      ],
      "stateMutability": "view",
      "type": "function"
    },
    {
      "inputs": [],
      "name": "name",
      "outputs": [
        {
          "internalType": "string",
          "name": "",
          "type": "string"
        }
      ],
      "stateMutability": "view",
      "type": "function"
    },
    {
      "inputs": [],
      "name": "owner",
      "outputs": [
        {
          "internalType": "address",
          "name": "",
          "type": "address"
        }
      ],
      "stateMutability": "view",
      "type": "function"
    },
    {
      "inputs": [
        {
          "internalType": "uint256",
          "name": "tokenId",
          "type": "uint256"
        }
      ],
      "name": "ownerOf",
      "outputs": [
        {
          "internalType": "address",
          "name": "",
          "type": "address"
        }
      ],
      "stateMutability": "view",
      "type": "function"
    },
    {
      "inputs": [],
      "name": "renounceOwnership",
      "outputs": [],
      "stateMutability": "nonpayable",
      "type": "function"
    },
    {
      "inputs": [
        {
          "internalType": "address",
          "name": "from",
          "type": "address"
        },
        {
          "internalType": "address",
          "name": "to",
          "type": "address"
        },
        {
          "internalType": "uint256",
          "name": "tokenId",
          "type": "uint256"
        }
      ],
      "name": "safeTransferFrom",
      "outputs": [],
      "stateMutability": "nonpayable",
      "type": "function"
    },
    {
      "inputs": [
        {
          "internalType": "address",
          "name": "from",
          "type": "address"
        },
        {
          "internalType": "address",
          "name": "to",
          "type": "address"
        },
        {
          "internalType": "uint256",
          "name": "tokenId",
          "type": "uint256"
        },
        {
          "internalType": "bytes",
          "name": "_data",
          "type": "bytes"
        }
      ],
      "name": "safeTransferFrom",
      "outputs": [],
      "stateMutability": "nonpayable",
      "type": "function"
    },
    {
      "inputs": [
        {
          "internalType": "address",
          "name": "operator",
          "type": "address"
        },
        {
          "internalType": "bool",
          "name": "approved",
          "type": "bool"
        }
      ],
      "name": "setApprovalForAll",
      "outputs": [],
      "stateMutability": "nonpayable",
      "type": "function"
    },
    {
      "inputs": [
        {
          "internalType": "bytes4",
          "name": "interfaceId",
          "type": "bytes4"
        }
      ],
      "name": "supportsInterface",
      "outputs": [
        {
          "internalType": "bool",
          "name": "",
          "type": "bool"
        }
      ],
      "stateMutability": "view",
      "type": "function"
    },
    {
      "inputs": [],
      "name": "symbol",
      "outputs": [
        {
          "internalType": "string",
          "name": "",
          "type": "string"
        }
      ],
      "stateMutability": "view",
      "type": "function"
    },
    {
      "inputs": [
        {
          "internalType": "uint256",
          "name": "tokenId",
          "type": "uint256"
        }
      ],
      "name": "tokenURI",
      "outputs": [
        {
          "internalType": "string",
          "name": "",
          "type": "string"
        }
      ],
      "stateMutability": "view",
      "type": "function"
    },
    {
      "inputs": [
        {
          "internalType": "address",
          "name": "from",
          "type": "address"
        },
        {
          "internalType": "address",
          "name": "to",
          "type": "address"
        },
        {
          "internalType": "uint256",
          "name": "tokenId",
          "type": "uint256"
        }
      ],
      "name": "transferFrom",
      "outputs": [],
      "stateMutability": "nonpayable",
      "type": "function"
    },
    {
      "inputs": [
        {
          "internalType": "address",
          "name": "newOwner",
          "type": "address"
        }
      ],
      "name": "transferOwnership",
      "outputs": [],
      "stateMutability": "nonpayable",
      "type": "function"
    },
    {
      "inputs": [
        {
          "internalType": "string",
          "name": "tokenURI",
          "type": "string"
        }
      ],
      "name": "mintToken",
      "outputs": [
        {
          "internalType": "uint256",
          "name": "",
          "type": "uint256"
        }
      ],
      "stateMutability": "nonpayable",
      "type": "function"
    }
  ],
  "bytecode": "0x60806040523480156200001157600080fd5b506040518060400160405280600481526020017f504c4159000000000000000000000000000000000000000000000000000000008152506040518060400160405280600481526020017f504e465400000000000000000000000000000000000000000000000000000000815250816000908051906020019062000096929190620001b8565b508060019080519060200190620000af929190620001b8565b505050620000e4620000cf620000ea640100000000026401000000009004565b620000f2640100000000026401000000009004565b620002cd565b600033905090565b6000600760009054906101000a900473ffffffffffffffffffffffffffffffffffffffff16905081600760006101000a81548173ffffffffffffffffffffffffffffffffffffffff021916908373ffffffffffffffffffffffffffffffffffffffff1602179055508173ffffffffffffffffffffffffffffffffffffffff168173ffffffffffffffffffffffffffffffffffffffff167f8be0079c531659141344cd1fd0a4f28419497f9722a3daafe3b4186f6b6457e060405160405180910390a35050565b828054620001c69062000268565b90600052602060002090601f016020900481019282620001ea576000855562000236565b82601f106200020557805160ff191683800117855562000236565b8280016001018555821562000236579182015b828111156200023557825182559160200191906001019062000218565b5b50905062000245919062000249565b5090565b5b80821115620002645760008160009055506001016200024a565b5090565b600060028204905060018216806200028157607f821691505b602082108114156200029857620002976200029e565b5b50919050565b7f4e487b7100000000000000000000000000000000000000000000000000000000600052602260045260246000fd5b61304980620002dd6000396000f3fe608060405234801561001057600080fd5b5060043610610128576000357c01000000000000000000000000000000000000000000000000000000009004806370a08231116100bf578063a22cb4651161008e578063a22cb465146102d5578063b88d4fde146102f1578063c87b56dd1461030d578063e985e9c51461033d578063f2fde38b1461036d57610128565b806370a082311461025f578063715018a61461028f5780638da5cb5b1461029957806395d89b41146102b757610128565b806323b872dd116100fb57806323b872dd146101c757806333eba49a146101e357806342842e0e146102135780636352211e1461022f57610128565b806301ffc9a71461012d57806306fdde031461015d578063081812fc1461017b578063095ea7b3146101ab575b600080fd5b61014760048036038101906101429190611fb7565b610389565b6040516101549190612444565b60405180910390f35b61016561046b565b604051610172919061245f565b60405180910390f35b6101956004803603810190610190919061204a565b6104fd565b6040516101a291906123dd565b60405180910390f35b6101c560048036038101906101c09190611f7b565b610582565b005b6101e160048036038101906101dc9190611e75565b61069a565b005b6101fd60048036038101906101f89190612009565b6106fa565b60405161020a91906126c1565b60405180910390f35b61022d60048036038101906102289190611e75565b6107ad565b005b6102496004803603810190610244919061204a565b6107cd565b60405161025691906123dd565b60405180910390f35b61027960048036038101906102749190611e10565b61087f565b60405161028691906126c1565b60405180910390f35b610297610937565b005b6102a16109bf565b6040516102ae91906123dd565b60405180910390f35b6102bf6109e9565b6040516102cc919061245f565b60405180910390f35b6102ef60048036038101906102ea9190611f3f565b610a7b565b005b61030b60048036038101906103069190611ec4565b610a91565b005b6103276004803603810190610322919061204a565b610af3565b604051610334919061245f565b60405180910390f35b61035760048036038101906103529190611e39565b610c45565b6040516103649190612444565b60405180910390f35b61038760048036038101906103829190611e10565b610cd9565b005b60007f80ac58cd000000000000000000000000000000000000000000000000000000007bffffffffffffffffffffffffffffffffffffffffffffffffffffffff1916827bffffffffffffffffffffffffffffffffffffffffffffffffffffffff1916148061045457507f5b5e139f000000000000000000000000000000000000000000000000000000007bffffffffffffffffffffffffffffffffffffffffffffffffffffffff1916827bffffffffffffffffffffffffffffffffffffffffffffffffffffffff1916145b80610464575061046382610dd1565b5b9050919050565b60606000805461047a90612917565b80601f01602080910402602001604051908101604052809291908181526020018280546104a690612917565b80156104f35780601f106104c8576101008083540402835291602001916104f3565b820191906000526020600020905b8154815290600101906020018083116104d657829003601f168201915b5050505050905090565b600061050882610e3b565b610547576040517f08c379a000000000000000000000000000000000000000000000000000000000815260040161053e90612621565b60405180910390fd5b6004600083815260200190815260200160002060009054906101000a900473ffffffffffffffffffffffffffffffffffffffff169050919050565b600061058d826107cd565b90508073ffffffffffffffffffffffffffffffffffffffff168373ffffffffffffffffffffffffffffffffffffffff1614156105fe576040517f08c379a00000000000000000000000000000000000000000000000000000000081526004016105f590612681565b60405180910390fd5b8073ffffffffffffffffffffffffffffffffffffffff1661061d610ea7565b73ffffffffffffffffffffffffffffffffffffffff16148061064c575061064b81610646610ea7565b610c45565b5b61068b576040517f08c379a000000000000000000000000000000000000000000000000000000000815260040161068290612561565b60405180910390fd5b6106958383610eaf565b505050565b6106ab6106a5610ea7565b82610f68565b6106ea576040517f08c379a00000000000000000000000000000000000000000000000000000000081526004016106e1906126a1565b60405180910390fd5b6106f5838383611046565b505050565b6000610704610ea7565b73ffffffffffffffffffffffffffffffffffffffff166107226109bf565b73ffffffffffffffffffffffffffffffffffffffff1614610778576040517f08c379a000000000000000000000000000000000000000000000000000000000815260040161076f90612641565b60405180910390fd5b61078260086112ad565b600061078e60086112c3565b905061079a33826112d1565b6107a481846114ab565b80915050919050565b6107c883838360405180602001604052806000815250610a91565b505050565b6000806002600084815260200190815260200160002060009054906101000a900473ffffffffffffffffffffffffffffffffffffffff169050600073ffffffffffffffffffffffffffffffffffffffff168173ffffffffffffffffffffffffffffffffffffffff161415610876576040517f08c379a000000000000000000000000000000000000000000000000000000000815260040161086d906125a1565b60405180910390fd5b80915050919050565b60008073ffffffffffffffffffffffffffffffffffffffff168273ffffffffffffffffffffffffffffffffffffffff1614156108f0576040517f08c379a00000000000000000000000000000000000000000000000000000000081526004016108e790612581565b60405180910390fd5b600360008373ffffffffffffffffffffffffffffffffffffffff1673ffffffffffffffffffffffffffffffffffffffff168152602001908152602001600020549050919050565b61093f610ea7565b73ffffffffffffffffffffffffffffffffffffffff1661095d6109bf565b73ffffffffffffffffffffffffffffffffffffffff16146109b3576040517f08c379a00000000000000000000000000000000000000000000000000000000081526004016109aa90612641565b60405180910390fd5b6109bd600061151f565b565b6000600760009054906101000a900473ffffffffffffffffffffffffffffffffffffffff16905090565b6060600180546109f890612917565b80601f0160208091040260200160405190810160405280929190818152602001828054610a2490612917565b8015610a715780601f10610a4657610100808354040283529160200191610a71565b820191906000526020600020905b815481529060010190602001808311610a5457829003601f168201915b5050505050905090565b610a8d610a86610ea7565b83836115e5565b5050565b610aa2610a9c610ea7565b83610f68565b610ae1576040517f08c379a0000000000000000000000000000000000000000000000000000000008152600401610ad8906126a1565b60405180910390fd5b610aed84848484611752565b50505050565b6060610afe82610e3b565b610b3d576040517f08c379a0000000000000000000000000000000000000000000000000000000008152600401610b3490612601565b60405180910390fd5b6000600660008481526020019081526020016000208054610b5d90612917565b80601f0160208091040260200160405190810160405280929190818152602001828054610b8990612917565b8015610bd65780601f10610bab57610100808354040283529160200191610bd6565b820191906000526020600020905b815481529060010190602001808311610bb957829003601f168201915b505050505090506000610be76117ae565b9050600081511415610bfd578192505050610c40565b600082511115610c32578082604051602001610c1a9291906123b9565b60405160208183030381529060405292505050610c40565b610c3b846117c5565b925050505b919050565b6000600560008473ffffffffffffffffffffffffffffffffffffffff1673ffffffffffffffffffffffffffffffffffffffff16815260200190815260200160002060008373ffffffffffffffffffffffffffffffffffffffff1673ffffffffffffffffffffffffffffffffffffffff16815260200190815260200160002060009054906101000a900460ff16905092915050565b610ce1610ea7565b73ffffffffffffffffffffffffffffffffffffffff16610cff6109bf565b73ffffffffffffffffffffffffffffffffffffffff1614610d55576040517f08c379a0000000000000000000000000000000000000000000000000000000008152600401610d4c90612641565b60405180910390fd5b600073ffffffffffffffffffffffffffffffffffffffff168173ffffffffffffffffffffffffffffffffffffffff161415610dc5576040517f08c379a0000000000000000000000000000000000000000000000000000000008152600401610dbc906124a1565b60405180910390fd5b610dce8161151f565b50565b60007f01ffc9a7000000000000000000000000000000000000000000000000000000007bffffffffffffffffffffffffffffffffffffffffffffffffffffffff1916827bffffffffffffffffffffffffffffffffffffffffffffffffffffffff1916149050919050565b60008073ffffffffffffffffffffffffffffffffffffffff166002600084815260200190815260200160002060009054906101000a900473ffffffffffffffffffffffffffffffffffffffff1673ffffffffffffffffffffffffffffffffffffffff1614159050919050565b600033905090565b816004600083815260200190815260200160002060006101000a81548173ffffffffffffffffffffffffffffffffffffffff021916908373ffffffffffffffffffffffffffffffffffffffff160217905550808273ffffffffffffffffffffffffffffffffffffffff16610f22836107cd565b73ffffffffffffffffffffffffffffffffffffffff167f8c5be1e5ebec7d5bd14f71427d1e84f3dd0314c0f7b2291e5b200ac8c7c3b92560405160405180910390a45050565b6000610f7382610e3b565b610fb2576040517f08c379a0000000000000000000000000000000000000000000000000000000008152600401610fa990612541565b60405180910390fd5b6000610fbd836107cd565b90508073ffffffffffffffffffffffffffffffffffffffff168473ffffffffffffffffffffffffffffffffffffffff16148061102c57508373ffffffffffffffffffffffffffffffffffffffff16611014846104fd565b73ffffffffffffffffffffffffffffffffffffffff16145b8061103d575061103c8185610c45565b5b91505092915050565b8273ffffffffffffffffffffffffffffffffffffffff16611066826107cd565b73ffffffffffffffffffffffffffffffffffffffff16146110bc576040517f08c379a00000000000000000000000000000000000000000000000000000000081526004016110b3906124c1565b60405180910390fd5b600073ffffffffffffffffffffffffffffffffffffffff168273ffffffffffffffffffffffffffffffffffffffff16141561112c576040517f08c379a000000000000000000000000000000000000000000000000000000000815260040161112390612501565b60405180910390fd5b61113783838361186c565b611142600082610eaf565b6001600360008573ffffffffffffffffffffffffffffffffffffffff1673ffffffffffffffffffffffffffffffffffffffff1681526020019081526020016000206000828254611192919061282d565b925050819055506001600360008473ffffffffffffffffffffffffffffffffffffffff1673ffffffffffffffffffffffffffffffffffffffff16815260200190815260200160002060008282546111e991906127a6565b92505081905550816002600083815260200190815260200160002060006101000a81548173ffffffffffffffffffffffffffffffffffffffff021916908373ffffffffffffffffffffffffffffffffffffffff160217905550808273ffffffffffffffffffffffffffffffffffffffff168473ffffffffffffffffffffffffffffffffffffffff167fddf252ad1be2c89b69c2b068fc378daa952ba7f163c4a11628f55a4df523b3ef60405160405180910390a46112a8838383611871565b505050565b6001816000016000828254019250508190555050565b600081600001549050919050565b600073ffffffffffffffffffffffffffffffffffffffff168273ffffffffffffffffffffffffffffffffffffffff161415611341576040517f08c379a0000000000000000000000000000000000000000000000000000000008152600401611338906125e1565b60405180910390fd5b61134a81610e3b565b1561138a576040517f08c379a0000000000000000000000000000000000000000000000000000000008152600401611381906124e1565b60405180910390fd5b6113966000838361186c565b6001600360008473ffffffffffffffffffffffffffffffffffffffff1673ffffffffffffffffffffffffffffffffffffffff16815260200190815260200160002060008282546113e691906127a6565b92505081905550816002600083815260200190815260200160002060006101000a81548173ffffffffffffffffffffffffffffffffffffffff021916908373ffffffffffffffffffffffffffffffffffffffff160217905550808273ffffffffffffffffffffffffffffffffffffffff16600073ffffffffffffffffffffffffffffffffffffffff167fddf252ad1be2c89b69c2b068fc378daa952ba7f163c4a11628f55a4df523b3ef60405160405180910390a46114a760008383611871565b5050565b6114b482610e3b565b6114f3576040517f08c379a00000000000000000000000000000000000000000000000000000000081526004016114ea906125c1565b60405180910390fd5b8060066000848152602001908152602001600020908051906020019061151a929190611c34565b505050565b6000600760009054906101000a900473ffffffffffffffffffffffffffffffffffffffff16905081600760006101000a81548173ffffffffffffffffffffffffffffffffffffffff021916908373ffffffffffffffffffffffffffffffffffffffff1602179055508173ffffffffffffffffffffffffffffffffffffffff168173ffffffffffffffffffffffffffffffffffffffff167f8be0079c531659141344cd1fd0a4f28419497f9722a3daafe3b4186f6b6457e060405160405180910390a35050565b8173ffffffffffffffffffffffffffffffffffffffff168373ffffffffffffffffffffffffffffffffffffffff161415611654576040517f08c379a000000000000000000000000000000000000000000000000000000000815260040161164b90612521565b60405180910390fd5b80600560008573ffffffffffffffffffffffffffffffffffffffff1673ffffffffffffffffffffffffffffffffffffffff16815260200190815260200160002060008473ffffffffffffffffffffffffffffffffffffffff1673ffffffffffffffffffffffffffffffffffffffff16815260200190815260200160002060006101000a81548160ff0219169083151502179055508173ffffffffffffffffffffffffffffffffffffffff168373ffffffffffffffffffffffffffffffffffffffff167f17307eab39ab6107e8899845ad3d59bd9653f200f220920489ca2b5937696c31836040516117459190612444565b60405180910390a3505050565b61175d848484611046565b61176984848484611876565b6117a8576040517f08c379a000000000000000000000000000000000000000000000000000000000815260040161179f90612481565b60405180910390fd5b50505050565b606060405180602001604052806000815250905090565b60606117d082610e3b565b61180f576040517f08c379a000000000000000000000000000000000000000000000000000000000815260040161180690612661565b60405180910390fd5b60006118196117ae565b905060008151116118395760405180602001604052806000815250611864565b8061184384611a45565b6040516020016118549291906123b9565b6040516020818303038152906040525b915050919050565b505050565b505050565b60006118978473ffffffffffffffffffffffffffffffffffffffff16611c11565b15611a38578373ffffffffffffffffffffffffffffffffffffffff1663150b7a026118c0610ea7565b8786866040518563ffffffff167c01000000000000000000000000000000000000000000000000000000000281526004016118fe94939291906123f8565b602060405180830381600087803b15801561191857600080fd5b505af192505050801561194957506040513d601f19601f820116820180604052508101906119469190611fe0565b60015b6119cc573d8060008114611979576040519150601f19603f3d011682016040523d82523d6000602084013e61197e565b606091505b506000815114156119c4576040517f08c379a00000000000000000000000000000000000000000000000000000000081526004016119bb90612481565b60405180910390fd5b805181602001fd5b63150b7a027c0100000000000000000000000000000000000000000000000000000000027bffffffffffffffffffffffffffffffffffffffffffffffffffffffff1916817bffffffffffffffffffffffffffffffffffffffffffffffffffffffff191614915050611a3d565b600190505b949350505050565b60606000821415611a8d576040518060400160405280600181526020017f30000000000000000000000000000000000000000000000000000000000000008152509050611c0c565b600082905060005b60008214611abf578080611aa89061297a565b915050600a82611ab891906127fc565b9150611a95565b60008167ffffffffffffffff811115611b01577f4e487b7100000000000000000000000000000000000000000000000000000000600052604160045260246000fd5b6040519080825280601f01601f191660200182016040528015611b335781602001600182028036833780820191505090505b5090505b60008514611c0557600182611b4c919061282d565b9150600a85611b5b91906129c3565b6030611b6791906127a6565b7f010000000000000000000000000000000000000000000000000000000000000002818381518110611bc2577f4e487b7100000000000000000000000000000000000000000000000000000000600052603260045260246000fd5b60200101907effffffffffffffffffffffffffffffffffffffffffffffffffffffffffffff1916908160001a905350600a85611bfe91906127fc565b9450611b37565b8093505050505b919050565b6000808273ffffffffffffffffffffffffffffffffffffffff163b119050919050565b828054611c4090612917565b90600052602060002090601f016020900481019282611c625760008555611ca9565b82601f10611c7b57805160ff1916838001178555611ca9565b82800160010185558215611ca9579182015b82811115611ca8578251825591602001919060010190611c8d565b5b509050611cb69190611cba565b5090565b5b80821115611cd3576000816000905550600101611cbb565b5090565b6000611cea611ce584612701565b6126dc565b905082815260208101848484011115611d0257600080fd5b611d0d8482856128d5565b509392505050565b6000611d28611d2384612732565b6126dc565b905082815260208101848484011115611d4057600080fd5b611d4b8482856128d5565b509392505050565b600081359050611d6281612fb7565b92915050565b600081359050611d7781612fce565b92915050565b600081359050611d8c81612fe5565b92915050565b600081519050611da181612fe5565b92915050565b600082601f830112611db857600080fd5b8135611dc8848260208601611cd7565b91505092915050565b600082601f830112611de257600080fd5b8135611df2848260208601611d15565b91505092915050565b600081359050611e0a81612ffc565b92915050565b600060208284031215611e2257600080fd5b6000611e3084828501611d53565b91505092915050565b60008060408385031215611e4c57600080fd5b6000611e5a85828601611d53565b9250506020611e6b85828601611d53565b9150509250929050565b600080600060608486031215611e8a57600080fd5b6000611e9886828701611d53565b9350506020611ea986828701611d53565b9250506040611eba86828701611dfb565b9150509250925092565b60008060008060808587031215611eda57600080fd5b6000611ee887828801611d53565b9450506020611ef987828801611d53565b9350506040611f0a87828801611dfb565b925050606085013567ffffffffffffffff811115611f2757600080fd5b611f3387828801611da7565b91505092959194509250565b60008060408385031215611f5257600080fd5b6000611f6085828601611d53565b9250506020611f7185828601611d68565b9150509250929050565b60008060408385031215611f8e57600080fd5b6000611f9c85828601611d53565b9250506020611fad85828601611dfb565b9150509250929050565b600060208284031215611fc957600080fd5b6000611fd784828501611d7d565b91505092915050565b600060208284031215611ff257600080fd5b600061200084828501611d92565b91505092915050565b60006020828403121561201b57600080fd5b600082013567ffffffffffffffff81111561203557600080fd5b61204184828501611dd1565b91505092915050565b60006020828403121561205c57600080fd5b600061206a84828501611dfb565b91505092915050565b61207c81612861565b82525050565b61208b81612873565b82525050565b600061209c82612763565b6120a68185612779565b93506120b68185602086016128e4565b6120bf81612ab0565b840191505092915050565b60006120d58261276e565b6120df818561278a565b93506120ef8185602086016128e4565b6120f881612ab0565b840191505092915050565b600061210e8261276e565b612118818561279b565b93506121288185602086016128e4565b80840191505092915050565b600061214160328361278a565b915061214c82612ac1565b604082019050919050565b600061216460268361278a565b915061216f82612b10565b604082019050919050565b600061218760258361278a565b915061219282612b5f565b604082019050919050565b60006121aa601c8361278a565b91506121b582612bae565b602082019050919050565b60006121cd60248361278a565b91506121d882612bd7565b604082019050919050565b60006121f060198361278a565b91506121fb82612c26565b602082019050919050565b6000612213602c8361278a565b915061221e82612c4f565b604082019050919050565b600061223660388361278a565b915061224182612c9e565b604082019050919050565b6000612259602a8361278a565b915061226482612ced565b604082019050919050565b600061227c60298361278a565b915061228782612d3c565b604082019050919050565b600061229f602e8361278a565b91506122aa82612d8b565b604082019050919050565b60006122c260208361278a565b91506122cd82612dda565b602082019050919050565b60006122e560318361278a565b91506122f082612e03565b604082019050919050565b6000612308602c8361278a565b915061231382612e52565b604082019050919050565b600061232b60208361278a565b915061233682612ea1565b602082019050919050565b600061234e602f8361278a565b915061235982612eca565b604082019050919050565b600061237160218361278a565b915061237c82612f19565b604082019050919050565b600061239460318361278a565b915061239f82612f68565b604082019050919050565b6123b3816128cb565b82525050565b60006123c58285612103565b91506123d18284612103565b91508190509392505050565b60006020820190506123f26000830184612073565b92915050565b600060808201905061240d6000830187612073565b61241a6020830186612073565b61242760408301856123aa565b81810360608301526124398184612091565b905095945050505050565b60006020820190506124596000830184612082565b92915050565b6000602082019050818103600083015261247981846120ca565b905092915050565b6000602082019050818103600083015261249a81612134565b9050919050565b600060208201905081810360008301526124ba81612157565b9050919050565b600060208201905081810360008301526124da8161217a565b9050919050565b600060208201905081810360008301526124fa8161219d565b9050919050565b6000602082019050818103600083015261251a816121c0565b9050919050565b6000602082019050818103600083015261253a816121e3565b9050919050565b6000602082019050818103600083015261255a81612206565b9050919050565b6000602082019050818103600083015261257a81612229565b9050919050565b6000602082019050818103600083015261259a8161224c565b9050919050565b600060208201905081810360008301526125ba8161226f565b9050919050565b600060208201905081810360008301526125da81612292565b9050919050565b600060208201905081810360008301526125fa816122b5565b9050919050565b6000602082019050818103600083015261261a816122d8565b9050919050565b6000602082019050818103600083015261263a816122fb565b9050919050565b6000602082019050818103600083015261265a8161231e565b9050919050565b6000602082019050818103600083015261267a81612341565b9050919050565b6000602082019050818103600083015261269a81612364565b9050919050565b600060208201905081810360008301526126ba81612387565b9050919050565b60006020820190506126d660008301846123aa565b92915050565b60006126e66126f7565b90506126f28282612949565b919050565b6000604051905090565b600067ffffffffffffffff82111561271c5761271b612a81565b5b61272582612ab0565b9050602081019050919050565b600067ffffffffffffffff82111561274d5761274c612a81565b5b61275682612ab0565b9050602081019050919050565b600081519050919050565b600081519050919050565b600082825260208201905092915050565b600082825260208201905092915050565b600081905092915050565b60006127b1826128cb565b91506127bc836128cb565b9250827fffffffffffffffffffffffffffffffffffffffffffffffffffffffffffffffff038211156127f1576127f06129f4565b5b828201905092915050565b6000612807826128cb565b9150612812836128cb565b92508261282257612821612a23565b5b828204905092915050565b6000612838826128cb565b9150612843836128cb565b925082821015612856576128556129f4565b5b828203905092915050565b600061286c826128ab565b9050919050565b60008115159050919050565b60007fffffffff0000000000000000000000000000000000000000000000000000000082169050919050565b600073ffffffffffffffffffffffffffffffffffffffff82169050919050565b6000819050919050565b82818337600083830152505050565b60005b838110156129025780820151818401526020810190506128e7565b83811115612911576000848401525b50505050565b6000600282049050600182168061292f57607f821691505b6020821081141561294357612942612a52565b5b50919050565b61295282612ab0565b810181811067ffffffffffffffff8211171561297157612970612a81565b5b80604052505050565b6000612985826128cb565b91507fffffffffffffffffffffffffffffffffffffffffffffffffffffffffffffffff8214156129b8576129b76129f4565b5b600182019050919050565b60006129ce826128cb565b91506129d9836128cb565b9250826129e9576129e8612a23565b5b828206905092915050565b7f4e487b7100000000000000000000000000000000000000000000000000000000600052601160045260246000fd5b7f4e487b7100000000000000000000000000000000000000000000000000000000600052601260045260246000fd5b7f4e487b7100000000000000000000000000000000000000000000000000000000600052602260045260246000fd5b7f4e487b7100000000000000000000000000000000000000000000000000000000600052604160045260246000fd5b6000601f19601f8301169050919050565b7f4552433732313a207472616e7366657220746f206e6f6e20455243373231526560008201527f63656976657220696d706c656d656e7465720000000000000000000000000000602082015250565b7f4f776e61626c653a206e6577206f776e657220697320746865207a65726f206160008201527f6464726573730000000000000000000000000000000000000000000000000000602082015250565b7f4552433732313a207472616e736665722066726f6d20696e636f72726563742060008201527f6f776e6572000000000000000000000000000000000000000000000000000000602082015250565b7f4552433732313a20746f6b656e20616c7265616479206d696e74656400000000600082015250565b7f4552433732313a207472616e7366657220746f20746865207a65726f2061646460008201527f7265737300000000000000000000000000000000000000000000000000000000602082015250565b7f4552433732313a20617070726f766520746f2063616c6c657200000000000000600082015250565b7f4552433732313a206f70657261746f7220717565727920666f72206e6f6e657860008201527f697374656e7420746f6b656e0000000000000000000000000000000000000000602082015250565b7f4552433732313a20617070726f76652063616c6c6572206973206e6f74206f7760008201527f6e6572206e6f7220617070726f76656420666f7220616c6c0000000000000000602082015250565b7f4552433732313a2062616c616e636520717565727920666f7220746865207a6560008201527f726f206164647265737300000000000000000000000000000000000000000000602082015250565b7f4552433732313a206f776e657220717565727920666f72206e6f6e657869737460008201527f656e7420746f6b656e0000000000000000000000000000000000000000000000602082015250565b7f45524337323155524953746f726167653a2055524920736574206f66206e6f6e60008201527f6578697374656e7420746f6b656e000000000000000000000000000000000000602082015250565b7f4552433732313a206d696e7420746f20746865207a65726f2061646472657373600082015250565b7f45524337323155524953746f726167653a2055524920717565727920666f722060008201527f6e6f6e6578697374656e7420746f6b656e000000000000000000000000000000602082015250565b7f4552433732313a20617070726f76656420717565727920666f72206e6f6e657860008201527f697374656e7420746f6b656e0000000000000000000000000000000000000000602082015250565b7f4f776e61626c653a2063616c6c6572206973206e6f7420746865206f776e6572600082015250565b7f4552433732314d657461646174613a2055524920717565727920666f72206e6f60008201527f6e6578697374656e7420746f6b656e0000000000000000000000000000000000602082015250565b7f4552433732313a20617070726f76616c20746f2063757272656e74206f776e6560008201527f7200000000000000000000000000000000000000000000000000000000000000602082015250565b7f4552433732313a207472616e736665722063616c6c6572206973206e6f74206f60008201527f776e6572206e6f7220617070726f766564000000000000000000000000000000602082015250565b612fc081612861565b8114612fcb57600080fd5b50565b612fd781612873565b8114612fe257600080fd5b50565b612fee8161287f565b8114612ff957600080fd5b50565b613005816128cb565b811461301057600080fd5b5056fea264697066735822122042b8202df69a79e6d6a11badc11f3af514dd576fbd39580663beac27824cc26764736f6c63430008010033",
  "immutableReferences": {},
  "source": "// SPDX-License-Identifier: MIT\r\npragma solidity ^0.8.0;\r\n\r\n//import \"@openzeppelin/contracts/utils/Context.sol\"\r\n//import \"@openzeppelin/contracts/access/Ownable.sol\";\r\nimport \"@OpenZeppelin/contracts/token/ERC721/extensions/ERC721URIStorage.sol\";\r\nimport \"@OpenZeppelin/contracts/utils/Counters.sol\";\r\n\r\nabstract contract Ownable is Context {\r\n    address private _owner;\r\n\r\n    event OwnershipTransferred(address indexed previousOwner, address indexed newOwner);\r\n\r\n    /**\r\n     * @dev Initializes the contract setting the deployer as the initial owner.\r\n     */\r\n    constructor() {\r\n        _transferOwnership(_msgSender());\r\n    }\r\n\r\n    /**\r\n     * @dev Returns the address of the current owner.\r\n     */\r\n    function owner() public view virtual returns (address) {\r\n        return _owner;\r\n    }\r\n\r\n    /**\r\n     * @dev Throws if called by any account other than the owner.\r\n     */\r\n    modifier onlyOwner() {\r\n        require(owner() == _msgSender(), \"Ownable: caller is not the owner\");\r\n        _;\r\n    }\r\n\r\n    /**\r\n     * @dev Leaves the contract without owner. It will not be possible to call\r\n     * `onlyOwner` functions anymore. Can only be called by the current owner.\r\n     *\r\n     * NOTE: Renouncing ownership will leave the contract without an owner,\r\n     * thereby removing any functionality that is only available to the owner.\r\n     */\r\n    function renounceOwnership() public virtual onlyOwner {\r\n        _transferOwnership(address(0));\r\n    }\r\n\r\n    /**\r\n     * @dev Transfers ownership of the contract to a new account (`newOwner`).\r\n     * Can only be called by the current owner.\r\n     */\r\n    function transferOwnership(address newOwner) public virtual onlyOwner {\r\n        require(newOwner != address(0), \"Ownable: new owner is the zero address\");\r\n        _transferOwnership(newOwner);\r\n    }\r\n\r\n    /**\r\n     * @dev Transfers ownership of the contract to a new account (`newOwner`).\r\n     * Internal function without access restriction.\r\n     */\r\n    function _transferOwnership(address newOwner) internal virtual {\r\n        address oldOwner = _owner;\r\n        _owner = newOwner;\r\n        emit OwnershipTransferred(oldOwner, newOwner);\r\n    }\r\n}\r\n\r\ncontract MyNFT is ERC721URIStorage, Ownable {\r\n    using Counters for Counters.Counter;\r\n    \r\n    Counters.Counter private _tokenIds;\r\n\r\n    constructor() ERC721(\"PLAY\", \"PNFT\") {}\r\n\r\n    function mintToken(string memory tokenURI)\r\n        public onlyOwner\r\n        returns (uint256)\r\n    {\r\n        _tokenIds.increment();\r\n\r\n        uint256 newItemId = _tokenIds.current();\r\n        _mint(msg.sender, newItemId);\r\n        _setTokenURI(newItemId, tokenURI);\r\n\r\n        return newItemId;\r\n    }\r\n}",
  "sourcePath": "C:/Users/CHARLES/Desktop/blockdev/trufflestuff/contracts/play.sol",
  "compiler": {
    "name": "solc",
    "version": "0.8.1+commit.df193b15.Emscripten.clang"
  },
  "schemaVersion": "3.3.4",
  "updatedAt": "2022-02-28T23:14:15.256Z",
  "devdoc": {
    "kind": "dev",
    "methods": {
      "approve(address,uint256)": {
        "details": "See {IERC721-approve}."
      },
      "balanceOf(address)": {
        "details": "See {IERC721-balanceOf}."
      },
      "getApproved(uint256)": {
        "details": "See {IERC721-getApproved}."
      },
      "isApprovedForAll(address,address)": {
        "details": "See {IERC721-isApprovedForAll}."
      },
      "name()": {
        "details": "See {IERC721Metadata-name}."
      },
      "owner()": {
        "details": "Returns the address of the current owner."
      },
      "ownerOf(uint256)": {
        "details": "See {IERC721-ownerOf}."
      },
      "renounceOwnership()": {
        "details": "Leaves the contract without owner. It will not be possible to call `onlyOwner` functions anymore. Can only be called by the current owner. NOTE: Renouncing ownership will leave the contract without an owner, thereby removing any functionality that is only available to the owner."
      },
      "safeTransferFrom(address,address,uint256)": {
        "details": "See {IERC721-safeTransferFrom}."
      },
      "safeTransferFrom(address,address,uint256,bytes)": {
        "details": "See {IERC721-safeTransferFrom}."
      },
      "setApprovalForAll(address,bool)": {
        "details": "See {IERC721-setApprovalForAll}."
      },
      "supportsInterface(bytes4)": {
        "details": "See {IERC165-supportsInterface}."
      },
      "symbol()": {
        "details": "See {IERC721Metadata-symbol}."
      },
      "tokenURI(uint256)": {
        "details": "See {IERC721Metadata-tokenURI}."
      },
      "transferFrom(address,address,uint256)": {
        "details": "See {IERC721-transferFrom}."
      },
      "transferOwnership(address)": {
        "details": "Transfers ownership of the contract to a new account (`newOwner`). Can only be called by the current owner."
      }
    },
    "version": 1
  },
  "userdoc": {
    "kind": "user",
    "methods": {},
    "version": 1
  }
}