{
  "contractName": "Play",
  "abi": [
    {
      "inputs": [],
      "stateMutability": "nonpayable",
      "type": "constructor"
    },
    {
      "anonymous": false,
      "inputs": [
        {
          "indexed": true,
          "internalType": "address",
          "name": "owner",
          "type": "address"
        },
        {
          "indexed": true,
          "internalType": "address",
          "name": "approved",
          "type": "address"
        },
        {
          "indexed": true,
          "internalType": "uint256",
          "name": "tokenId",
          "type": "uint256"
        }
      ],
      "name": "Approval",
      "type": "event"
    },
    {
      "anonymous": false,
      "inputs": [
        {
          "indexed": true,
          "internalType": "address",
          "name": "owner",
          "type": "address"
        },
        {
          "indexed": true,
          "internalType": "address",
          "name": "operator",
          "type": "address"
        },
        {
          "indexed": false,
          "internalType": "bool",
          "name": "approved",
          "type": "bool"
        }
      ],
      "name": "ApprovalForAll",
      "type": "event"
    },
    {
      "anonymous": false,
      "inputs": [
        {
          "indexed": false,
          "internalType": "address payable",
          "name": "Owner",
          "type": "address"
        },
        {
          "indexed": false,
          "internalType": "uint256",
          "name": "amount",
          "type": "uint256"
        }
      ],
      "name": "BalanceWithdrawn",
      "type": "event"
    },
    {
      "anonymous": false,
      "inputs": [
        {
          "indexed": true,
          "internalType": "address",
          "name": "previousOwner",
          "type": "address"
        },
        {
          "indexed": true,
          "internalType": "address",
          "name": "newOwner",
          "type": "address"
        }
      ],
      "name": "OwnershipTransferred",
      "type": "event"
    },
    {
      "anonymous": false,
      "inputs": [
        {
          "indexed": true,
          "internalType": "address",
          "name": "from",
          "type": "address"
        },
        {
          "indexed": true,
          "internalType": "address",
          "name": "to",
          "type": "address"
        },
        {
          "indexed": true,
          "internalType": "uint256",
          "name": "tokenId",
          "type": "uint256"
        }
      ],
      "name": "Transfer",
      "type": "event"
    },
    {
      "anonymous": false,
      "inputs": [
        {
          "indexed": false,
          "internalType": "bool",
          "name": "saleIsActive",
          "type": "bool"
        }
      ],
      "name": "saleStateFlipped",
      "type": "event"
    },
    {
      "inputs": [],
      "name": "MAX_PLAY",
      "outputs": [
        {
          "internalType": "uint256",
          "name": "",
          "type": "uint256"
        }
      ],
      "stateMutability": "view",
      "type": "function"
    },
    {
      "inputs": [
        {
          "internalType": "address",
          "name": "to",
          "type": "address"
        },
        {
          "internalType": "uint256",
          "name": "tokenId",
          "type": "uint256"
        }
      ],
      "name": "approve",
      "outputs": [],
      "stateMutability": "nonpayable",
      "type": "function"
    },
    {
      "inputs": [
        {
          "internalType": "address",
          "name": "owner",
          "type": "address"
        }
      ],
      "name": "balanceOf",
      "outputs": [
        {
          "internalType": "uint256",
          "name": "",
          "type": "uint256"
        }
      ],
      "stateMutability": "view",
      "type": "function"
    },
    {
      "inputs": [
        {
          "internalType": "uint256",
          "name": "tokenId",
          "type": "uint256"
        }
      ],
      "name": "getApproved",
      "outputs": [
        {
          "internalType": "address",
          "name": "",
          "type": "address"
        }
      ],
      "stateMutability": "view",
      "type": "function"
    },
    {
      "inputs": [
        {
          "internalType": "address",
          "name": "owner",
          "type": "address"
        },
        {
          "internalType": "address",
          "name": "operator",
          "type": "address"
        }
      ],
      "name": "isApprovedForAll",
      "outputs": [
        {
          "internalType": "bool",
          "name": "",
          "type": "bool"
        }
      ],
      "stateMutability": "view",
      "type": "function"
    },
    {
      "inputs": [],
      "name": "maxPlayPurchcase",
      "outputs": [
        {
          "internalType": "uint256",
          "name": "",
          "type": "uint256"
        }
      ],
      "stateMutability": "view",
      "type": "function"
    },
    {
      "inputs": [],
      "name": "name",
      "outputs": [
        {
          "internalType": "string",
          "name": "",
          "type": "string"
        }
      ],
      "stateMutability": "view",
      "type": "function"
    },
    {
      "inputs": [],
      "name": "owner",
      "outputs": [
        {
          "internalType": "address",
          "name": "",
          "type": "address"
        }
      ],
      "stateMutability": "view",
      "type": "function"
    },
    {
      "inputs": [
        {
          "internalType": "uint256",
          "name": "tokenId",
          "type": "uint256"
        }
      ],
      "name": "ownerOf",
      "outputs": [
        {
          "internalType": "address",
          "name": "",
          "type": "address"
        }
      ],
      "stateMutability": "view",
      "type": "function"
    },
    {
      "inputs": [],
      "name": "renounceOwnership",
      "outputs": [],
      "stateMutability": "nonpayable",
      "type": "function"
    },
    {
      "inputs": [
        {
          "internalType": "address",
          "name": "from",
          "type": "address"
        },
        {
          "internalType": "address",
          "name": "to",
          "type": "address"
        },
        {
          "internalType": "uint256",
          "name": "tokenId",
          "type": "uint256"
        }
      ],
      "name": "safeTransferFrom",
      "outputs": [],
      "stateMutability": "nonpayable",
      "type": "function"
    },
    {
      "inputs": [
        {
          "internalType": "address",
          "name": "from",
          "type": "address"
        },
        {
          "internalType": "address",
          "name": "to",
          "type": "address"
        },
        {
          "internalType": "uint256",
          "name": "tokenId",
          "type": "uint256"
        },
        {
          "internalType": "bytes",
          "name": "_data",
          "type": "bytes"
        }
      ],
      "name": "safeTransferFrom",
      "outputs": [],
      "stateMutability": "nonpayable",
      "type": "function"
    },
    {
      "inputs": [],
      "name": "saleIsActive",
      "outputs": [
        {
          "internalType": "bool",
          "name": "",
          "type": "bool"
        }
      ],
      "stateMutability": "view",
      "type": "function"
    },
    {
      "inputs": [
        {
          "internalType": "address",
          "name": "operator",
          "type": "address"
        },
        {
          "internalType": "bool",
          "name": "approved",
          "type": "bool"
        }
      ],
      "name": "setApprovalForAll",
      "outputs": [],
      "stateMutability": "nonpayable",
      "type": "function"
    },
    {
      "inputs": [
        {
          "internalType": "bytes4",
          "name": "interfaceId",
          "type": "bytes4"
        }
      ],
      "name": "supportsInterface",
      "outputs": [
        {
          "internalType": "bool",
          "name": "",
          "type": "bool"
        }
      ],
      "stateMutability": "view",
      "type": "function"
    },
    {
      "inputs": [],
      "name": "symbol",
      "outputs": [
        {
          "internalType": "string",
          "name": "",
          "type": "string"
        }
      ],
      "stateMutability": "view",
      "type": "function"
    },
    {
      "inputs": [
        {
          "internalType": "uint256",
          "name": "tokenId",
          "type": "uint256"
        }
      ],
      "name": "tokenURI",
      "outputs": [
        {
          "internalType": "string",
          "name": "",
          "type": "string"
        }
      ],
      "stateMutability": "view",
      "type": "function"
    },
    {
      "inputs": [
        {
          "internalType": "address",
          "name": "from",
          "type": "address"
        },
        {
          "internalType": "address",
          "name": "to",
          "type": "address"
        },
        {
          "internalType": "uint256",
          "name": "tokenId",
          "type": "uint256"
        }
      ],
      "name": "transferFrom",
      "outputs": [],
      "stateMutability": "nonpayable",
      "type": "function"
    },
    {
      "inputs": [
        {
          "internalType": "address",
          "name": "newOwner",
          "type": "address"
        }
      ],
      "name": "transferOwnership",
      "outputs": [],
      "stateMutability": "nonpayable",
      "type": "function"
    },
    {
      "inputs": [],
      "name": "ethBalance",
      "outputs": [
        {
          "internalType": "uint256",
          "name": "",
          "type": "uint256"
        }
      ],
      "stateMutability": "view",
      "type": "function"
    },
    {
      "inputs": [],
      "name": "withdraw",
      "outputs": [],
      "stateMutability": "payable",
      "type": "function"
    },
    {
      "inputs": [],
      "name": "flipSaleState",
      "outputs": [],
      "stateMutability": "nonpayable",
      "type": "function"
    },
    {
      "inputs": [],
      "name": "checkSaleState",
      "outputs": [
        {
          "internalType": "bool",
          "name": "",
          "type": "bool"
        }
      ],
      "stateMutability": "view",
      "type": "function"
    },
    {
      "inputs": [
        {
          "internalType": "string",
          "name": "tokenURI",
          "type": "string"
        }
      ],
      "name": "mintToken",
      "outputs": [
        {
          "internalType": "uint256",
          "name": "",
          "type": "uint256"
        }
      ],
      "stateMutability": "nonpayable",
      "type": "function"
    }
  ],
  "bytecode": "0x60806040526103e86009556000600a60006101000a81548160ff0219169083151502179055503480156200003257600080fd5b506040518060400160405280600481526020017f504c4159000000000000000000000000000000000000000000000000000000008152506040518060400160405280600481526020017f504e4654000000000000000000000000000000000000000000000000000000008152508160009080519060200190620000b7929190620001d9565b508060019080519060200190620000d0929190620001d9565b50505062000105620000f06200010b640100000000026401000000009004565b62000113640100000000026401000000009004565b620002ee565b600033905090565b6000600760009054906101000a900473ffffffffffffffffffffffffffffffffffffffff16905081600760006101000a81548173ffffffffffffffffffffffffffffffffffffffff021916908373ffffffffffffffffffffffffffffffffffffffff1602179055508173ffffffffffffffffffffffffffffffffffffffff168173ffffffffffffffffffffffffffffffffffffffff167f8be0079c531659141344cd1fd0a4f28419497f9722a3daafe3b4186f6b6457e060405160405180910390a35050565b828054620001e79062000289565b90600052602060002090601f0160209004810192826200020b576000855562000257565b82601f106200022657805160ff191683800117855562000257565b8280016001018555821562000257579182015b828111156200025657825182559160200191906001019062000239565b5b5090506200026691906200026a565b5090565b5b80821115620002855760008160009055506001016200026b565b5090565b60006002820490506001821680620002a257607f821691505b60208210811415620002b957620002b8620002bf565b5b50919050565b7f4e487b7100000000000000000000000000000000000000000000000000000000600052602260045260246000fd5b61375f80620002fe6000396000f3fe608060405260043610610168576000357c0100000000000000000000000000000000000000000000000000000000900480636bb7f7d6116100d3578063a67b876e1161008c578063a67b876e1461047c578063b88d4fde146104a7578063c87b56dd146104d0578063e985e9c51461050d578063eb8d24441461054a578063f2fde38b1461057557610168565b80636bb7f7d61461037e57806370a08231146103a9578063715018a6146103e65780638da5cb5b146103fd57806395d89b4114610428578063a22cb4651461045357610168565b806334918dfd1161012557806334918dfd146102a15780633ccfd60b146102b85780633e71d5fb146102c257806342842e0e146102ed5780634e6630b0146103165780636352211e1461034157610168565b806301ffc9a71461016d57806306fdde03146101aa578063081812fc146101d5578063095ea7b31461021257806323b872dd1461023b57806333eba49a14610264575b600080fd5b34801561017957600080fd5b50610194600480360381019061018f919061251d565b61059e565b6040516101a19190612a4b565b60405180910390f35b3480156101b657600080fd5b506101bf610680565b6040516101cc9190612a66565b60405180910390f35b3480156101e157600080fd5b506101fc60048036038101906101f791906125b0565b610712565b60405161020991906129e4565b60405180910390f35b34801561021e57600080fd5b50610239600480360381019061023491906124e1565b610797565b005b34801561024757600080fd5b50610262600480360381019061025d91906123db565b6108af565b005b34801561027057600080fd5b5061028b6004803603810190610286919061256f565b61090f565b6040516102989190612d28565b60405180910390f35b3480156102ad57600080fd5b506102b661099c565b005b6102c0610a8a565b005b3480156102ce57600080fd5b506102d7610b36565b6040516102e49190612a4b565b60405180910390f35b3480156102f957600080fd5b50610314600480360381019061030f91906123db565b610b4d565b005b34801561032257600080fd5b5061032b610b6d565b6040516103389190612d28565b60405180910390f35b34801561034d57600080fd5b50610368600480360381019061036391906125b0565b610b91565b60405161037591906129e4565b60405180910390f35b34801561038a57600080fd5b50610393610c43565b6040516103a09190612d28565b60405180910390f35b3480156103b557600080fd5b506103d060048036038101906103cb9190612376565b610c49565b6040516103dd9190612d28565b60405180910390f35b3480156103f257600080fd5b506103fb610d01565b005b34801561040957600080fd5b50610412610d89565b60405161041f91906129e4565b60405180910390f35b34801561043457600080fd5b5061043d610db3565b60405161044a9190612a66565b60405180910390f35b34801561045f57600080fd5b5061047a600480360381019061047591906124a5565b610e45565b005b34801561048857600080fd5b50610491610e5b565b60405161049e9190612d28565b60405180910390f35b3480156104b357600080fd5b506104ce60048036038101906104c9919061242a565b610e60565b005b3480156104dc57600080fd5b506104f760048036038101906104f291906125b0565b610ec2565b6040516105049190612a66565b60405180910390f35b34801561051957600080fd5b50610534600480360381019061052f919061239f565b611014565b6040516105419190612a4b565b60405180910390f35b34801561055657600080fd5b5061055f6110a8565b60405161056c9190612a4b565b60405180910390f35b34801561058157600080fd5b5061059c60048036038101906105979190612376565b6110bb565b005b60007f80ac58cd000000000000000000000000000000000000000000000000000000007bffffffffffffffffffffffffffffffffffffffffffffffffffffffff1916827bffffffffffffffffffffffffffffffffffffffffffffffffffffffff1916148061066957507f5b5e139f000000000000000000000000000000000000000000000000000000007bffffffffffffffffffffffffffffffffffffffffffffffffffffffff1916827bffffffffffffffffffffffffffffffffffffffffffffffffffffffff1916145b806106795750610678826111b3565b5b9050919050565b60606000805461068f90612f89565b80601f01602080910402602001604051908101604052809291908181526020018280546106bb90612f89565b80156107085780601f106106dd57610100808354040283529160200191610708565b820191906000526020600020905b8154815290600101906020018083116106eb57829003601f168201915b5050505050905090565b600061071d8261121d565b61075c576040517f08c379a000000000000000000000000000000000000000000000000000000000815260040161075390612c68565b60405180910390fd5b6004600083815260200190815260200160002060009054906101000a900473ffffffffffffffffffffffffffffffffffffffff169050919050565b60006107a282610b91565b90508073ffffffffffffffffffffffffffffffffffffffff168373ffffffffffffffffffffffffffffffffffffffff161415610813576040517f08c379a000000000000000000000000000000000000000000000000000000000815260040161080a90612cc8565b60405180910390fd5b8073ffffffffffffffffffffffffffffffffffffffff16610832611289565b73ffffffffffffffffffffffffffffffffffffffff16148061086157506108608161085b611289565b611014565b5b6108a0576040517f08c379a000000000000000000000000000000000000000000000000000000000815260040161089790612ba8565b60405180910390fd5b6108aa8383611291565b505050565b6108c06108ba611289565b8261134a565b6108ff576040517f08c379a00000000000000000000000000000000000000000000000000000000081526004016108f690612ce8565b60405180910390fd5b61090a838383611428565b505050565b600060011515600a60009054906101000a900460ff16151514610967576040517f08c379a000000000000000000000000000000000000000000000000000000000815260040161095e90612d08565b60405180910390fd5b610971600861168f565b600061097d60086116a5565b905061098933826116b3565b61099381846116d1565b80915050919050565b6109a4611289565b73ffffffffffffffffffffffffffffffffffffffff166109c2610d89565b73ffffffffffffffffffffffffffffffffffffffff1614610a18576040517f08c379a0000000000000000000000000000000000000000000000000000000008152600401610a0f90612c88565b60405180910390fd5b600a60009054906101000a900460ff1615600a60006101000a81548160ff0219169083151502179055507f533d93712d08600cba0aff242b5a87bab629063e2ac53405a4c0639405c4fb37600a60009054906101000a900460ff16604051610a809190612a4b565b60405180910390a1565b610a92611289565b73ffffffffffffffffffffffffffffffffffffffff16610ab0610d89565b73ffffffffffffffffffffffffffffffffffffffff1614610b06576040517f08c379a0000000000000000000000000000000000000000000000000000000008152600401610afd90612c88565b60405180910390fd5b60003073ffffffffffffffffffffffffffffffffffffffff16319050610b33610b2d610d89565b82611745565b50565b6000600a60009054906101000a900460ff16905090565b610b6883838360405180602001604052806000815250610e60565b505050565b6000803073ffffffffffffffffffffffffffffffffffffffff163190508091505090565b6000806002600084815260200190815260200160002060009054906101000a900473ffffffffffffffffffffffffffffffffffffffff169050600073ffffffffffffffffffffffffffffffffffffffff168173ffffffffffffffffffffffffffffffffffffffff161415610c3a576040517f08c379a0000000000000000000000000000000000000000000000000000000008152600401610c3190612be8565b60405180910390fd5b80915050919050565b60095481565b60008073ffffffffffffffffffffffffffffffffffffffff168273ffffffffffffffffffffffffffffffffffffffff161415610cba576040517f08c379a0000000000000000000000000000000000000000000000000000000008152600401610cb190612bc8565b60405180910390fd5b600360008373ffffffffffffffffffffffffffffffffffffffff1673ffffffffffffffffffffffffffffffffffffffff168152602001908152602001600020549050919050565b610d09611289565b73ffffffffffffffffffffffffffffffffffffffff16610d27610d89565b73ffffffffffffffffffffffffffffffffffffffff1614610d7d576040517f08c379a0000000000000000000000000000000000000000000000000000000008152600401610d7490612c88565b60405180910390fd5b610d876000611850565b565b6000600760009054906101000a900473ffffffffffffffffffffffffffffffffffffffff16905090565b606060018054610dc290612f89565b80601f0160208091040260200160405190810160405280929190818152602001828054610dee90612f89565b8015610e3b5780601f10610e1057610100808354040283529160200191610e3b565b820191906000526020600020905b815481529060010190602001808311610e1e57829003601f168201915b5050505050905090565b610e57610e50611289565b8383611916565b5050565b600581565b610e71610e6b611289565b8361134a565b610eb0576040517f08c379a0000000000000000000000000000000000000000000000000000000008152600401610ea790612ce8565b60405180910390fd5b610ebc84848484611a83565b50505050565b6060610ecd8261121d565b610f0c576040517f08c379a0000000000000000000000000000000000000000000000000000000008152600401610f0390612c48565b60405180910390fd5b6000600660008481526020019081526020016000208054610f2c90612f89565b80601f0160208091040260200160405190810160405280929190818152602001828054610f5890612f89565b8015610fa55780601f10610f7a57610100808354040283529160200191610fa5565b820191906000526020600020905b815481529060010190602001808311610f8857829003601f168201915b505050505090506000610fb6611adf565b9050600081511415610fcc57819250505061100f565b600082511115611001578082604051602001610fe99291906129ab565b6040516020818303038152906040529250505061100f565b61100a84611af6565b925050505b919050565b6000600560008473ffffffffffffffffffffffffffffffffffffffff1673ffffffffffffffffffffffffffffffffffffffff16815260200190815260200160002060008373ffffffffffffffffffffffffffffffffffffffff1673ffffffffffffffffffffffffffffffffffffffff16815260200190815260200160002060009054906101000a900460ff16905092915050565b600a60009054906101000a900460ff1681565b6110c3611289565b73ffffffffffffffffffffffffffffffffffffffff166110e1610d89565b73ffffffffffffffffffffffffffffffffffffffff1614611137576040517f08c379a000000000000000000000000000000000000000000000000000000000815260040161112e90612c88565b60405180910390fd5b600073ffffffffffffffffffffffffffffffffffffffff168173ffffffffffffffffffffffffffffffffffffffff1614156111a7576040517f08c379a000000000000000000000000000000000000000000000000000000000815260040161119e90612aa8565b60405180910390fd5b6111b081611850565b50565b60007f01ffc9a7000000000000000000000000000000000000000000000000000000007bffffffffffffffffffffffffffffffffffffffffffffffffffffffff1916827bffffffffffffffffffffffffffffffffffffffffffffffffffffffff1916149050919050565b60008073ffffffffffffffffffffffffffffffffffffffff166002600084815260200190815260200160002060009054906101000a900473ffffffffffffffffffffffffffffffffffffffff1673ffffffffffffffffffffffffffffffffffffffff1614159050919050565b600033905090565b816004600083815260200190815260200160002060006101000a81548173ffffffffffffffffffffffffffffffffffffffff021916908373ffffffffffffffffffffffffffffffffffffffff160217905550808273ffffffffffffffffffffffffffffffffffffffff1661130483610b91565b73ffffffffffffffffffffffffffffffffffffffff167f8c5be1e5ebec7d5bd14f71427d1e84f3dd0314c0f7b2291e5b200ac8c7c3b92560405160405180910390a45050565b60006113558261121d565b611394576040517f08c379a000000000000000000000000000000000000000000000000000000000815260040161138b90612b88565b60405180910390fd5b600061139f83610b91565b90508073ffffffffffffffffffffffffffffffffffffffff168473ffffffffffffffffffffffffffffffffffffffff16148061140e57508373ffffffffffffffffffffffffffffffffffffffff166113f684610712565b73ffffffffffffffffffffffffffffffffffffffff16145b8061141f575061141e8185611014565b5b91505092915050565b8273ffffffffffffffffffffffffffffffffffffffff1661144882610b91565b73ffffffffffffffffffffffffffffffffffffffff161461149e576040517f08c379a000000000000000000000000000000000000000000000000000000000815260040161149590612ac8565b60405180910390fd5b600073ffffffffffffffffffffffffffffffffffffffff168273ffffffffffffffffffffffffffffffffffffffff16141561150e576040517f08c379a000000000000000000000000000000000000000000000000000000000815260040161150590612b08565b60405180910390fd5b611519838383611b9d565b611524600082611291565b6001600360008573ffffffffffffffffffffffffffffffffffffffff1673ffffffffffffffffffffffffffffffffffffffff16815260200190815260200160002060008282546115749190612e9f565b925050819055506001600360008473ffffffffffffffffffffffffffffffffffffffff1673ffffffffffffffffffffffffffffffffffffffff16815260200190815260200160002060008282546115cb9190612e18565b92505081905550816002600083815260200190815260200160002060006101000a81548173ffffffffffffffffffffffffffffffffffffffff021916908373ffffffffffffffffffffffffffffffffffffffff160217905550808273ffffffffffffffffffffffffffffffffffffffff168473ffffffffffffffffffffffffffffffffffffffff167fddf252ad1be2c89b69c2b068fc378daa952ba7f163c4a11628f55a4df523b3ef60405160405180910390a461168a838383611ba2565b505050565b6001816000016000828254019250508190555050565b600081600001549050919050565b6116cd828260405180602001604052806000815250611ba7565b5050565b6116da8261121d565b611719576040517f08c379a000000000000000000000000000000000000000000000000000000000815260040161171090612c08565b60405180910390fd5b8060066000848152602001908152602001600020908051906020019061174092919061219a565b505050565b803073ffffffffffffffffffffffffffffffffffffffff1631101561179f576040517f08c379a000000000000000000000000000000000000000000000000000000000815260040161179690612b68565b60405180910390fd5b60008273ffffffffffffffffffffffffffffffffffffffff16826040516117c5906129cf565b60006040518083038185875af1925050503d8060008114611802576040519150601f19603f3d011682016040523d82523d6000602084013e611807565b606091505b505090508061184b576040517f08c379a000000000000000000000000000000000000000000000000000000000815260040161184290612b48565b60405180910390fd5b505050565b6000600760009054906101000a900473ffffffffffffffffffffffffffffffffffffffff16905081600760006101000a81548173ffffffffffffffffffffffffffffffffffffffff021916908373ffffffffffffffffffffffffffffffffffffffff1602179055508173ffffffffffffffffffffffffffffffffffffffff168173ffffffffffffffffffffffffffffffffffffffff167f8be0079c531659141344cd1fd0a4f28419497f9722a3daafe3b4186f6b6457e060405160405180910390a35050565b8173ffffffffffffffffffffffffffffffffffffffff168373ffffffffffffffffffffffffffffffffffffffff161415611985576040517f08c379a000000000000000000000000000000000000000000000000000000000815260040161197c90612b28565b60405180910390fd5b80600560008573ffffffffffffffffffffffffffffffffffffffff1673ffffffffffffffffffffffffffffffffffffffff16815260200190815260200160002060008473ffffffffffffffffffffffffffffffffffffffff1673ffffffffffffffffffffffffffffffffffffffff16815260200190815260200160002060006101000a81548160ff0219169083151502179055508173ffffffffffffffffffffffffffffffffffffffff168373ffffffffffffffffffffffffffffffffffffffff167f17307eab39ab6107e8899845ad3d59bd9653f200f220920489ca2b5937696c3183604051611a769190612a4b565b60405180910390a3505050565b611a8e848484611428565b611a9a84848484611c02565b611ad9576040517f08c379a0000000000000000000000000000000000000000000000000000000008152600401611ad090612a88565b60405180910390fd5b50505050565b606060405180602001604052806000815250905090565b6060611b018261121d565b611b40576040517f08c379a0000000000000000000000000000000000000000000000000000000008152600401611b3790612ca8565b60405180910390fd5b6000611b4a611adf565b90506000815111611b6a5760405180602001604052806000815250611b95565b80611b7484611dd1565b604051602001611b859291906129ab565b6040516020818303038152906040525b915050919050565b505050565b505050565b611bb18383611f9d565b611bbe6000848484611c02565b611bfd576040517f08c379a0000000000000000000000000000000000000000000000000000000008152600401611bf490612a88565b60405180910390fd5b505050565b6000611c238473ffffffffffffffffffffffffffffffffffffffff16612177565b15611dc4578373ffffffffffffffffffffffffffffffffffffffff1663150b7a02611c4c611289565b8786866040518563ffffffff167c0100000000000000000000000000000000000000000000000000000000028152600401611c8a94939291906129ff565b602060405180830381600087803b158015611ca457600080fd5b505af1925050508015611cd557506040513d601f19601f82011682018060405250810190611cd29190612546565b60015b611d58573d8060008114611d05576040519150601f19603f3d011682016040523d82523d6000602084013e611d0a565b606091505b50600081511415611d50576040517f08c379a0000000000000000000000000000000000000000000000000000000008152600401611d4790612a88565b60405180910390fd5b805181602001fd5b63150b7a027c0100000000000000000000000000000000000000000000000000000000027bffffffffffffffffffffffffffffffffffffffffffffffffffffffff1916817bffffffffffffffffffffffffffffffffffffffffffffffffffffffff191614915050611dc9565b600190505b949350505050565b60606000821415611e19576040518060400160405280600181526020017f30000000000000000000000000000000000000000000000000000000000000008152509050611f98565b600082905060005b60008214611e4b578080611e3490612fec565b915050600a82611e449190612e6e565b9150611e21565b60008167ffffffffffffffff811115611e8d577f4e487b7100000000000000000000000000000000000000000000000000000000600052604160045260246000fd5b6040519080825280601f01601f191660200182016040528015611ebf5781602001600182028036833780820191505090505b5090505b60008514611f9157600182611ed89190612e9f565b9150600a85611ee79190613035565b6030611ef39190612e18565b7f010000000000000000000000000000000000000000000000000000000000000002818381518110611f4e577f4e487b7100000000000000000000000000000000000000000000000000000000600052603260045260246000fd5b60200101907effffffffffffffffffffffffffffffffffffffffffffffffffffffffffffff1916908160001a905350600a85611f8a9190612e6e565b9450611ec3565b8093505050505b919050565b600073ffffffffffffffffffffffffffffffffffffffff168273ffffffffffffffffffffffffffffffffffffffff16141561200d576040517f08c379a000000000000000000000000000000000000000000000000000000000815260040161200490612c28565b60405180910390fd5b6120168161121d565b15612056576040517f08c379a000000000000000000000000000000000000000000000000000000000815260040161204d90612ae8565b60405180910390fd5b61206260008383611b9d565b6001600360008473ffffffffffffffffffffffffffffffffffffffff1673ffffffffffffffffffffffffffffffffffffffff16815260200190815260200160002060008282546120b29190612e18565b92505081905550816002600083815260200190815260200160002060006101000a81548173ffffffffffffffffffffffffffffffffffffffff021916908373ffffffffffffffffffffffffffffffffffffffff160217905550808273ffffffffffffffffffffffffffffffffffffffff16600073ffffffffffffffffffffffffffffffffffffffff167fddf252ad1be2c89b69c2b068fc378daa952ba7f163c4a11628f55a4df523b3ef60405160405180910390a461217360008383611ba2565b5050565b6000808273ffffffffffffffffffffffffffffffffffffffff163b119050919050565b8280546121a690612f89565b90600052602060002090601f0160209004810192826121c8576000855561220f565b82601f106121e157805160ff191683800117855561220f565b8280016001018555821561220f579182015b8281111561220e5782518255916020019190600101906121f3565b5b50905061221c9190612220565b5090565b5b80821115612239576000816000905550600101612221565b5090565b600061225061224b84612d68565b612d43565b90508281526020810184848401111561226857600080fd5b612273848285612f47565b509392505050565b600061228e61228984612d99565b612d43565b9050828152602081018484840111156122a657600080fd5b6122b1848285612f47565b509392505050565b6000813590506122c8816136cd565b92915050565b6000813590506122dd816136e4565b92915050565b6000813590506122f2816136fb565b92915050565b600081519050612307816136fb565b92915050565b600082601f83011261231e57600080fd5b813561232e84826020860161223d565b91505092915050565b600082601f83011261234857600080fd5b813561235884826020860161227b565b91505092915050565b60008135905061237081613712565b92915050565b60006020828403121561238857600080fd5b6000612396848285016122b9565b91505092915050565b600080604083850312156123b257600080fd5b60006123c0858286016122b9565b92505060206123d1858286016122b9565b9150509250929050565b6000806000606084860312156123f057600080fd5b60006123fe868287016122b9565b935050602061240f868287016122b9565b925050604061242086828701612361565b9150509250925092565b6000806000806080858703121561244057600080fd5b600061244e878288016122b9565b945050602061245f878288016122b9565b935050604061247087828801612361565b925050606085013567ffffffffffffffff81111561248d57600080fd5b6124998782880161230d565b91505092959194509250565b600080604083850312156124b857600080fd5b60006124c6858286016122b9565b92505060206124d7858286016122ce565b9150509250929050565b600080604083850312156124f457600080fd5b6000612502858286016122b9565b925050602061251385828601612361565b9150509250929050565b60006020828403121561252f57600080fd5b600061253d848285016122e3565b91505092915050565b60006020828403121561255857600080fd5b6000612566848285016122f8565b91505092915050565b60006020828403121561258157600080fd5b600082013567ffffffffffffffff81111561259b57600080fd5b6125a784828501612337565b91505092915050565b6000602082840312156125c257600080fd5b60006125d084828501612361565b91505092915050565b6125e281612ed3565b82525050565b6125f181612ee5565b82525050565b600061260282612dca565b61260c8185612de0565b935061261c818560208601612f56565b61262581613122565b840191505092915050565b600061263b82612dd5565b6126458185612dfc565b9350612655818560208601612f56565b61265e81613122565b840191505092915050565b600061267482612dd5565b61267e8185612e0d565b935061268e818560208601612f56565b80840191505092915050565b60006126a7603283612dfc565b91506126b282613133565b604082019050919050565b60006126ca602683612dfc565b91506126d582613182565b604082019050919050565b60006126ed602583612dfc565b91506126f8826131d1565b604082019050919050565b6000612710601c83612dfc565b915061271b82613220565b602082019050919050565b6000612733602483612dfc565b915061273e82613249565b604082019050919050565b6000612756601983612dfc565b915061276182613298565b602082019050919050565b6000612779603a83612dfc565b9150612784826132c1565b604082019050919050565b600061279c601d83612dfc565b91506127a782613310565b602082019050919050565b60006127bf602c83612dfc565b91506127ca82613339565b604082019050919050565b60006127e2603883612dfc565b91506127ed82613388565b604082019050919050565b6000612805602a83612dfc565b9150612810826133d7565b604082019050919050565b6000612828602983612dfc565b915061283382613426565b604082019050919050565b600061284b602e83612dfc565b915061285682613475565b604082019050919050565b600061286e602083612dfc565b9150612879826134c4565b602082019050919050565b6000612891603183612dfc565b915061289c826134ed565b604082019050919050565b60006128b4602c83612dfc565b91506128bf8261353c565b604082019050919050565b60006128d7602083612dfc565b91506128e28261358b565b602082019050919050565b60006128fa602f83612dfc565b9150612905826135b4565b604082019050919050565b600061291d602183612dfc565b915061292882613603565b604082019050919050565b6000612940600083612df1565b915061294b82613652565b600082019050919050565b6000612963603183612dfc565b915061296e82613655565b604082019050919050565b6000612986601483612dfc565b9150612991826136a4565b602082019050919050565b6129a581612f3d565b82525050565b60006129b78285612669565b91506129c38284612669565b91508190509392505050565b60006129da82612933565b9150819050919050565b60006020820190506129f960008301846125d9565b92915050565b6000608082019050612a1460008301876125d9565b612a2160208301866125d9565b612a2e604083018561299c565b8181036060830152612a4081846125f7565b905095945050505050565b6000602082019050612a6060008301846125e8565b92915050565b60006020820190508181036000830152612a808184612630565b905092915050565b60006020820190508181036000830152612aa18161269a565b9050919050565b60006020820190508181036000830152612ac1816126bd565b9050919050565b60006020820190508181036000830152612ae1816126e0565b9050919050565b60006020820190508181036000830152612b0181612703565b9050919050565b60006020820190508181036000830152612b2181612726565b9050919050565b60006020820190508181036000830152612b4181612749565b9050919050565b60006020820190508181036000830152612b618161276c565b9050919050565b60006020820190508181036000830152612b818161278f565b9050919050565b60006020820190508181036000830152612ba1816127b2565b9050919050565b60006020820190508181036000830152612bc1816127d5565b9050919050565b60006020820190508181036000830152612be1816127f8565b9050919050565b60006020820190508181036000830152612c018161281b565b9050919050565b60006020820190508181036000830152612c218161283e565b9050919050565b60006020820190508181036000830152612c4181612861565b9050919050565b60006020820190508181036000830152612c6181612884565b9050919050565b60006020820190508181036000830152612c81816128a7565b9050919050565b60006020820190508181036000830152612ca1816128ca565b9050919050565b60006020820190508181036000830152612cc1816128ed565b9050919050565b60006020820190508181036000830152612ce181612910565b9050919050565b60006020820190508181036000830152612d0181612956565b9050919050565b60006020820190508181036000830152612d2181612979565b9050919050565b6000602082019050612d3d600083018461299c565b92915050565b6000612d4d612d5e565b9050612d598282612fbb565b919050565b6000604051905090565b600067ffffffffffffffff821115612d8357612d826130f3565b5b612d8c82613122565b9050602081019050919050565b600067ffffffffffffffff821115612db457612db36130f3565b5b612dbd82613122565b9050602081019050919050565b600081519050919050565b600081519050919050565b600082825260208201905092915050565b600081905092915050565b600082825260208201905092915050565b600081905092915050565b6000612e2382612f3d565b9150612e2e83612f3d565b9250827fffffffffffffffffffffffffffffffffffffffffffffffffffffffffffffffff03821115612e6357612e62613066565b5b828201905092915050565b6000612e7982612f3d565b9150612e8483612f3d565b925082612e9457612e93613095565b5b828204905092915050565b6000612eaa82612f3d565b9150612eb583612f3d565b925082821015612ec857612ec7613066565b5b828203905092915050565b6000612ede82612f1d565b9050919050565b60008115159050919050565b60007fffffffff0000000000000000000000000000000000000000000000000000000082169050919050565b600073ffffffffffffffffffffffffffffffffffffffff82169050919050565b6000819050919050565b82818337600083830152505050565b60005b83811015612f74578082015181840152602081019050612f59565b83811115612f83576000848401525b50505050565b60006002820490506001821680612fa157607f821691505b60208210811415612fb557612fb46130c4565b5b50919050565b612fc482613122565b810181811067ffffffffffffffff82111715612fe357612fe26130f3565b5b80604052505050565b6000612ff782612f3d565b91507fffffffffffffffffffffffffffffffffffffffffffffffffffffffffffffffff82141561302a57613029613066565b5b600182019050919050565b600061304082612f3d565b915061304b83612f3d565b92508261305b5761305a613095565b5b828206905092915050565b7f4e487b7100000000000000000000000000000000000000000000000000000000600052601160045260246000fd5b7f4e487b7100000000000000000000000000000000000000000000000000000000600052601260045260246000fd5b7f4e487b7100000000000000000000000000000000000000000000000000000000600052602260045260246000fd5b7f4e487b7100000000000000000000000000000000000000000000000000000000600052604160045260246000fd5b6000601f19601f8301169050919050565b7f4552433732313a207472616e7366657220746f206e6f6e20455243373231526560008201527f63656976657220696d706c656d656e7465720000000000000000000000000000602082015250565b7f4f776e61626c653a206e6577206f776e657220697320746865207a65726f206160008201527f6464726573730000000000000000000000000000000000000000000000000000602082015250565b7f4552433732313a207472616e736665722066726f6d20696e636f72726563742060008201527f6f776e6572000000000000000000000000000000000000000000000000000000602082015250565b7f4552433732313a20746f6b656e20616c7265616479206d696e74656400000000600082015250565b7f4552433732313a207472616e7366657220746f20746865207a65726f2061646460008201527f7265737300000000000000000000000000000000000000000000000000000000602082015250565b7f4552433732313a20617070726f766520746f2063616c6c657200000000000000600082015250565b7f416464726573733a20756e61626c6520746f2073656e642076616c75652c207260008201527f6563697069656e74206d61792068617665207265766572746564000000000000602082015250565b7f416464726573733a20696e73756666696369656e742062616c616e6365000000600082015250565b7f4552433732313a206f70657261746f7220717565727920666f72206e6f6e657860008201527f697374656e7420746f6b656e0000000000000000000000000000000000000000602082015250565b7f4552433732313a20617070726f76652063616c6c6572206973206e6f74206f7760008201527f6e6572206e6f7220617070726f76656420666f7220616c6c0000000000000000602082015250565b7f4552433732313a2062616c616e636520717565727920666f7220746865207a6560008201527f726f206164647265737300000000000000000000000000000000000000000000602082015250565b7f4552433732313a206f776e657220717565727920666f72206e6f6e657869737460008201527f656e7420746f6b656e0000000000000000000000000000000000000000000000602082015250565b7f45524337323155524953746f726167653a2055524920736574206f66206e6f6e60008201527f6578697374656e7420746f6b656e000000000000000000000000000000000000602082015250565b7f4552433732313a206d696e7420746f20746865207a65726f2061646472657373600082015250565b7f45524337323155524953746f726167653a2055524920717565727920666f722060008201527f6e6f6e6578697374656e7420746f6b656e000000000000000000000000000000602082015250565b7f4552433732313a20617070726f76656420717565727920666f72206e6f6e657860008201527f697374656e7420746f6b656e0000000000000000000000000000000000000000602082015250565b7f4f776e61626c653a2063616c6c6572206973206e6f7420746865206f776e6572600082015250565b7f4552433732314d657461646174613a2055524920717565727920666f72206e6f60008201527f6e6578697374656e7420746f6b656e0000000000000000000000000000000000602082015250565b7f4552433732313a20617070726f76616c20746f2063757272656e74206f776e6560008201527f7200000000000000000000000000000000000000000000000000000000000000602082015250565b50565b7f4552433732313a207472616e736665722063616c6c6572206973206e6f74206f60008201527f776e6572206e6f7220617070726f766564000000000000000000000000000000602082015250565b7f53616c6520686173206e6f742073746172746564000000000000000000000000600082015250565b6136d681612ed3565b81146136e157600080fd5b50565b6136ed81612ee5565b81146136f857600080fd5b50565b61370481612ef1565b811461370f57600080fd5b50565b61371b81612f3d565b811461372657600080fd5b5056fea2646970667358221220dae5095b5082686ead9fde0aa5b99ff785c67725ae068eb5a3dc811069407bf064736f6c63430008010033",
  "immutableReferences": {},
  "source": "// SPDX-License-Identifier: MIT\r\npragma solidity ^0.8.0;\r\n\r\n//import \"@openzeppelin/contracts/access/Ownable.sol\";\r\nimport \"@OpenZeppelin/contracts/token/ERC721/extensions/ERC721URIStorage.sol\";\r\nimport \"@OpenZeppelin/contracts/utils/Counters.sol\";\r\nimport \"@Openzeppelin/contracts/utils/math/SafeMath.sol\";\r\n\r\n//had to write the ownable contract out cos context declared here has been declared before\r\nabstract contract Ownable is Context {\r\n    address private _owner;\r\n\r\n    event OwnershipTransferred(address indexed previousOwner, address indexed newOwner);\r\n\r\n    /**\r\n     * @dev Initializes the contract setting the deployer as the initial owner.\r\n     */\r\n    constructor() {\r\n        _transferOwnership(_msgSender());\r\n    }\r\n\r\n    /**\r\n     * @dev Returns the address of the current owner.\r\n     */\r\n    function owner() public view virtual returns (address) {\r\n        return _owner;\r\n    }\r\n\r\n    /**\r\n     * @dev Throws if called by any account other than the owner.\r\n     */\r\n    modifier onlyOwner() {\r\n        require(owner() == _msgSender(), \"Ownable: caller is not the owner\");\r\n        _;\r\n    }\r\n\r\n    /**\r\n     * @dev Leaves the contract without owner. It will not be possible to call\r\n     * `onlyOwner` functions anymore. Can only be called by the current owner.\r\n     *\r\n     * NOTE: Renouncing ownership will leave the contract without an owner,\r\n     * thereby removing any functionality that is only available to the owner.\r\n     */\r\n    function renounceOwnership() public virtual onlyOwner {\r\n        _transferOwnership(address(0));\r\n    }\r\n\r\n    /**\r\n     * @dev Transfers ownership of the contract to a new account (`newOwner`).\r\n     * Can only be called by the current owner.\r\n     */\r\n    function transferOwnership(address newOwner) public virtual onlyOwner {\r\n        require(newOwner != address(0), \"Ownable: new owner is the zero address\");\r\n        _transferOwnership(newOwner);\r\n    }\r\n\r\n    /**\r\n     * @dev Transfers ownership of the contract to a new account (`newOwner`).\r\n     * Internal function without access restriction.\r\n     */\r\n    function _transferOwnership(address newOwner) internal virtual {\r\n        address oldOwner = _owner;\r\n        _owner = newOwner;\r\n        emit OwnershipTransferred(oldOwner, newOwner);\r\n    }\r\n}\r\n\r\ncontract Play is ERC721URIStorage, Ownable {\r\n    using Counters for Counters.Counter;\r\n    Counters.Counter private _tokenIds;\r\n    uint public constant maxPlayPurchcase = 5;\r\n\r\n    uint256 public MAX_PLAY = 1000;\r\n\r\n    bool public saleIsActive = false;\r\n\r\n    event BalanceWithdrawn( address payable Owner, uint amount);\r\n    event saleStateFlipped(bool saleIsActive);\r\n    \r\n\r\n    constructor() ERC721(\"PLAY\", \"PNFT\") {}\r\n\r\n    //check the balance of the ether in the contract address\r\n    function ethBalance() public view returns(uint){\r\n        uint balance = address(this).balance;\r\n        return balance;\r\n    }\r\n\r\n    // transfer/withdraw the ether sent to the contract address to the admin/senders/owner(my) address\r\n    function withdraw() external onlyOwner payable{\r\n        uint balance = address(this).balance;\r\n        //address payable dogBoy = msg.sender;\r\n        //(dogBoy).transfer(balance);\r\n        Address.sendValue(payable(owner()), balance);\r\n        //emit BalanceWithdrawn(owner, balance );\r\n    }\r\n\r\n    /*\r\n    * Pause sale if active, make active if paused works like a toggle switch\r\n    */\r\n    function flipSaleState() public onlyOwner {\r\n        saleIsActive = !saleIsActive;\r\n        emit saleStateFlipped(saleIsActive);\r\n    }\r\n\r\n    function checkSaleState() public view returns(bool) {\r\n        return saleIsActive;\r\n    }\r\n\r\n    function mintToken(string memory tokenURI) public returns (uint256){\r\n        require(saleIsActive == true, \"Sale has not started\");\r\n        _tokenIds.increment();\r\n\r\n        uint256 newItemId = _tokenIds.current();\r\n        _safeMint(msg.sender, newItemId);\r\n        _setTokenURI(newItemId, tokenURI);\r\n\r\n        return newItemId;\r\n    }\r\n}",
  "sourcePath": "C:/Users/HP/Desktop/blockdev/smart_contracts/play/contracts/play.sol",
  "compiler": {
    "name": "solc",
    "version": "0.8.1+commit.df193b15.Emscripten.clang"
  },
  "schemaVersion": "3.4.1",
  "updatedAt": "2022-03-22T04:17:54.693Z",
  "devdoc": {
    "kind": "dev",
    "methods": {
      "approve(address,uint256)": {
        "details": "See {IERC721-approve}."
      },
      "balanceOf(address)": {
        "details": "See {IERC721-balanceOf}."
      },
      "getApproved(uint256)": {
        "details": "See {IERC721-getApproved}."
      },
      "isApprovedForAll(address,address)": {
        "details": "See {IERC721-isApprovedForAll}."
      },
      "name()": {
        "details": "See {IERC721Metadata-name}."
      },
      "owner()": {
        "details": "Returns the address of the current owner."
      },
      "ownerOf(uint256)": {
        "details": "See {IERC721-ownerOf}."
      },
      "renounceOwnership()": {
        "details": "Leaves the contract without owner. It will not be possible to call `onlyOwner` functions anymore. Can only be called by the current owner. NOTE: Renouncing ownership will leave the contract without an owner, thereby removing any functionality that is only available to the owner."
      },
      "safeTransferFrom(address,address,uint256)": {
        "details": "See {IERC721-safeTransferFrom}."
      },
      "safeTransferFrom(address,address,uint256,bytes)": {
        "details": "See {IERC721-safeTransferFrom}."
      },
      "setApprovalForAll(address,bool)": {
        "details": "See {IERC721-setApprovalForAll}."
      },
      "supportsInterface(bytes4)": {
        "details": "See {IERC165-supportsInterface}."
      },
      "symbol()": {
        "details": "See {IERC721Metadata-symbol}."
      },
      "tokenURI(uint256)": {
        "details": "See {IERC721Metadata-tokenURI}."
      },
      "transferFrom(address,address,uint256)": {
        "details": "See {IERC721-transferFrom}."
      },
      "transferOwnership(address)": {
        "details": "Transfers ownership of the contract to a new account (`newOwner`). Can only be called by the current owner."
      }
    },
    "version": 1
  },
  "userdoc": {
    "kind": "user",
    "methods": {},
    "version": 1
  }
}